{
  "contractName": "ERC165",
  "abi": [
    {
      "inputs": [],
      "stateMutability": "nonpayable",
      "type": "constructor"
    },
    {
      "inputs": [
        {
          "internalType": "bytes4",
          "name": "interfaceId",
          "type": "bytes4"
        }
      ],
      "name": "supportsInterface",
      "outputs": [
        {
          "internalType": "bool",
          "name": "",
          "type": "bool"
        }
      ],
      "stateMutability": "view",
      "type": "function"
    }
  ],
  "bytecode": "0x608060405234801561001057600080fd5b506100276301ffc9a760e01b61002c60201b60201c565b610172565b63ffffffff60e01b817bffffffffffffffffffffffffffffffffffffffffffffffffffffffff19161415610095576040517f08c379a000000000000000000000000000000000000000000000000000000000815260040161008c90610141565b60405180910390fd5b6001600080837bffffffffffffffffffffffffffffffffffffffffffffffffffffffff19167bffffffffffffffffffffffffffffffffffffffffffffffffffffffff1916815260200190815260200160002060006101000a81548160ff02191690831515021790555050565b600061010e601983610161565b91507f4552433136353a20496e76616c696420696e74657266616365000000000000006000830152602082019050919050565b6000602082019050818103600083015261015a81610101565b9050919050565b600082825260208201905092915050565b6101b4806101816000396000f3fe608060405234801561001057600080fd5b506004361061002b5760003560e01c806301ffc9a714610030575b600080fd5b61004a600480360381019061004591906100dc565b610060565b6040516100579190610114565b60405180910390f35b6000806000837bffffffffffffffffffffffffffffffffffffffffffffffffffffffff19167bffffffffffffffffffffffffffffffffffffffffffffffffffffffff1916815260200190815260200160002060009054906101000a900460ff169050919050565b6000813590506100d681610167565b92915050565b6000602082840312156100ee57600080fd5b60006100fc848285016100c7565b91505092915050565b61010e8161012f565b82525050565b60006020820190506101296000830184610105565b92915050565b60008115159050919050565b60007fffffffff0000000000000000000000000000000000000000000000000000000082169050919050565b6101708161013b565b811461017b57600080fd5b5056fea2646970667358221220b31d5b66e69ecd5bc5b3444baeeaa1d962d66a852214fbf524c070b9f78d781364736f6c63430008000033",
  "immutableReferences": {},
  "source": "// SPDX-License-Identifier: MIT\npragma solidity ^0.8.0;\nimport './interfaces/IERC165.sol';\n\ncontract ERC165 is IERC165 {\n// hash table to keep track of contract fingerprint data\nmapping(bytes4=>bool) private _supportInterfaces;\n\n// constructor \nconstructor(){\n    _registerHashFingerPrint(0x01ffc9a7);\n}\n\n// functions \nfunction supportsInterface(bytes4 interfaceId) external override view returns(bool){\n    return _supportInterfaces[interfaceId];\n}\n\n// function to register hash fingerprint for the contract \nfunction _registerHashFingerPrint(bytes4 interfaceId) internal  {\n    require(interfaceId!=0xffffffff,'ERC165: Invalid interface');\n    _supportInterfaces[interfaceId]=true;\n}\n\n}",
  "sourcePath": "/home/user/Downloads/.practice/NFTs/UDEMY-NFT-MARKETPLACE/nft-marketplace/src/contracts/ERC165.sol",
  "compiler": {
    "name": "solc",
    "version": "0.8.0+commit.c7dfd78e.Emscripten.clang"
  },
  "schemaVersion": "3.4.3",
  "updatedAt": "2021-12-16T10:44:36.938Z",
  "devdoc": {
    "kind": "dev",
    "methods": {},
    "version": 1
  },
  "userdoc": {
    "kind": "user",
    "methods": {},
    "version": 1
  }
}