{
  "contractName": "ERC721Metadata",
  "abi": [
    {
      "inputs": [
        {
          "internalType": "string",
          "name": "initName",
          "type": "string"
        },
        {
          "internalType": "string",
          "name": "initSymbol",
          "type": "string"
        }
      ],
      "stateMutability": "nonpayable",
      "type": "constructor"
    },
    {
      "inputs": [
        {
          "internalType": "bytes4",
          "name": "interfaceId",
          "type": "bytes4"
        }
      ],
      "name": "supportsInterface",
      "outputs": [
        {
          "internalType": "bool",
          "name": "",
          "type": "bool"
        }
      ],
      "stateMutability": "view",
      "type": "function"
    },
    {
      "inputs": [],
      "name": "name",
      "outputs": [
        {
          "internalType": "string",
          "name": "",
          "type": "string"
        }
      ],
      "stateMutability": "view",
      "type": "function"
    },
    {
      "inputs": [],
      "name": "symbol",
      "outputs": [
        {
          "internalType": "string",
          "name": "",
          "type": "string"
        }
      ],
      "stateMutability": "view",
      "type": "function"
    }
  ],
  "bytecode": "0x60806040523480156200001157600080fd5b5060405162000945380380620009458339818101604052810190620000379190620002d6565b6200004f6301ffc9a760e01b620000dc60201b60201c565b816001908051906020019062000067929190620001b4565b50806002908051906020019062000080929190620001b4565b50620000d47f13b182f4c0e5b2efbac0efe6cf6d756c8b89f4b79c5707a043ed9ea740574ee97f7feaf19471f34a12a7eaf32d5f3090aa2260ea8624dc8a138e74e0bf0f62307618620000dc60201b60201c565b5050620004ef565b63ffffffff60e01b817bffffffffffffffffffffffffffffffffffffffffffffffffffffffff1916141562000148576040517f08c379a00000000000000000000000000000000000000000000000000000000081526004016200013f906200038b565b60405180910390fd5b6001600080837bffffffffffffffffffffffffffffffffffffffffffffffffffffffff19167bffffffffffffffffffffffffffffffffffffffffffffffffffffffff1916815260200190815260200160002060006101000a81548160ff02191690831515021790555050565b828054620001c2906200045b565b90600052602060002090601f016020900481019282620001e6576000855562000232565b82601f106200020157805160ff191683800117855562000232565b8280016001018555821562000232579182015b828111156200023157825182559160200191906001019062000214565b5b50905062000241919062000245565b5090565b5b808211156200026057600081600090555060010162000246565b5090565b60006200027b6200027584620003e1565b620003ad565b9050828152602081018484840111156200029457600080fd5b620002a184828562000425565b509392505050565b600082601f830112620002bb57600080fd5b8151620002cd84826020860162000264565b91505092915050565b60008060408385031215620002ea57600080fd5b600083015167ffffffffffffffff8111156200030557600080fd5b6200031385828601620002a9565b925050602083015167ffffffffffffffff8111156200033157600080fd5b6200033f85828601620002a9565b9150509250929050565b60006200035860198362000414565b91507f4552433136353a20496e76616c696420696e74657266616365000000000000006000830152602082019050919050565b60006020820190508181036000830152620003a68162000349565b9050919050565b6000604051905081810181811067ffffffffffffffff82111715620003d757620003d6620004c0565b5b8060405250919050565b600067ffffffffffffffff821115620003ff57620003fe620004c0565b5b601f19601f8301169050602081019050919050565b600082825260208201905092915050565b60005b838110156200044557808201518184015260208101905062000428565b8381111562000455576000848401525b50505050565b600060028204905060018216806200047457607f821691505b602082108114156200048b576200048a62000491565b5b50919050565b7f4e487b7100000000000000000000000000000000000000000000000000000000600052602260045260246000fd5b7f4e487b7100000000000000000000000000000000000000000000000000000000600052604160045260246000fd5b61044680620004ff6000396000f3fe608060405234801561001057600080fd5b50600436106100415760003560e01c806301ffc9a71461004657806306fdde031461007657806395d89b4114610094575b600080fd5b610060600480360381019061005b9190610252565b6100b2565b60405161006d91906102c3565b60405180910390f35b61007e610119565b60405161008b91906102de565b60405180910390f35b61009c6101ab565b6040516100a991906102de565b60405180910390f35b6000806000837bffffffffffffffffffffffffffffffffffffffffffffffffffffffff19167bffffffffffffffffffffffffffffffffffffffffffffffffffffffff1916815260200190815260200160002060009054906101000a900460ff169050919050565b60606001805461012890610387565b80601f016020809104026020016040519081016040528092919081815260200182805461015490610387565b80156101a15780601f10610176576101008083540402835291602001916101a1565b820191906000526020600020905b81548152906001019060200180831161018457829003601f168201915b5050505050905090565b6060600280546101ba90610387565b80601f01602080910402602001604051908101604052809291908181526020018280546101e690610387565b80156102335780601f1061020857610100808354040283529160200191610233565b820191906000526020600020905b81548152906001019060200180831161021657829003601f168201915b5050505050905090565b60008135905061024c816103f9565b92915050565b60006020828403121561026457600080fd5b60006102728482850161023d565b91505092915050565b6102848161031c565b82525050565b600061029582610300565b61029f818561030b565b93506102af818560208601610354565b6102b8816103e8565b840191505092915050565b60006020820190506102d8600083018461027b565b92915050565b600060208201905081810360008301526102f8818461028a565b905092915050565b600081519050919050565b600082825260208201905092915050565b60008115159050919050565b60007fffffffff0000000000000000000000000000000000000000000000000000000082169050919050565b60005b83811015610372578082015181840152602081019050610357565b83811115610381576000848401525b50505050565b6000600282049050600182168061039f57607f821691505b602082108114156103b3576103b26103b9565b5b50919050565b7f4e487b7100000000000000000000000000000000000000000000000000000000600052602260045260246000fd5b6000601f19601f8301169050919050565b61040281610328565b811461040d57600080fd5b5056fea26469706673582212208e7cb09b8982867972905e6bfc34d463f5697049b891cddf50157ae7d6d86e2d64736f6c63430008000033",
  "immutableReferences": {},
  "source": "// SPDX-License-Identifier: MIT\npragma solidity 0.8.0;\nimport './interfaces/IERC721Metadata.sol';\nimport './ERC165.sol';\n\ncontract ERC721Metadata is IERC721Metadata,ERC165{\n    // state variables\n    string private _name;\n    string private _symbol;\n\n    // constructor\n    constructor(string memory initName,string memory initSymbol) {\n        _name=initName;\n        _symbol=initSymbol;\n        _registerHashFingerPrint(bytes4(keccak256('name(bytes4)')^(keccak256('symbol(bytes4)'))));\n\n    }\n\n    // functions \n    function name() external override view returns(string memory){\n        return _name;\n    }\n\n      function symbol() external override view returns(string memory){\n        return _symbol;\n    }\n\n\n}",
  "sourcePath": "/home/user/Downloads/.practice/NFTs/UDEMY-NFT-MARKETPLACE/nft-marketplace/src/contracts/ERC721Metadata.sol",
  "compiler": {
    "name": "solc",
    "version": "0.8.0+commit.c7dfd78e.Emscripten.clang"
  },
  "schemaVersion": "3.4.3",
  "updatedAt": "2021-12-17T06:24:06.992Z",
  "devdoc": {
    "kind": "dev",
    "methods": {},
    "version": 1
  },
  "userdoc": {
    "kind": "user",
    "methods": {
      "name()": {
        "notice": "A descriptive name for a collection of NFTs in this contract"
      },
      "symbol()": {
        "notice": "An abbreviated name for NFTs in this contract"
      }
    },
    "version": 1
  }
}