{
  "contractName": "KryptoBirdz",
  "abi": [
    {
      "inputs": [],
      "stateMutability": "nonpayable",
      "type": "constructor"
    },
    {
      "anonymous": false,
      "inputs": [
        {
          "indexed": false,
          "internalType": "address",
          "name": "from",
          "type": "address"
        },
        {
          "indexed": false,
          "internalType": "address",
          "name": "to",
          "type": "address"
        },
        {
          "indexed": false,
          "internalType": "uint256",
          "name": "tokenId",
          "type": "uint256"
        }
      ],
      "name": "Transfer",
      "type": "event"
    },
    {
      "inputs": [
        {
          "internalType": "address",
          "name": "_owner",
          "type": "address"
        }
      ],
      "name": "balanceOf",
      "outputs": [
        {
          "internalType": "uint256",
          "name": "",
          "type": "uint256"
        }
      ],
      "stateMutability": "view",
      "type": "function",
      "constant": true
    },
    {
      "inputs": [
        {
          "internalType": "uint256",
          "name": "",
          "type": "uint256"
        }
      ],
      "name": "kryptoBirdz",
      "outputs": [
        {
          "internalType": "string",
          "name": "",
          "type": "string"
        }
      ],
      "stateMutability": "view",
      "type": "function",
      "constant": true
    },
    {
      "inputs": [],
      "name": "name",
      "outputs": [
        {
          "internalType": "string",
          "name": "",
          "type": "string"
        }
      ],
      "stateMutability": "view",
      "type": "function",
      "constant": true
    },
    {
      "inputs": [
        {
          "internalType": "uint256",
          "name": "_tokenId",
          "type": "uint256"
        }
      ],
      "name": "ownerOf",
      "outputs": [
        {
          "internalType": "address",
          "name": "",
          "type": "address"
        }
      ],
      "stateMutability": "view",
      "type": "function",
      "constant": true
    },
    {
      "inputs": [],
      "name": "symbol",
      "outputs": [
        {
          "internalType": "string",
          "name": "",
          "type": "string"
        }
      ],
      "stateMutability": "view",
      "type": "function",
      "constant": true
    },
    {
      "inputs": [
        {
          "internalType": "uint256",
          "name": "index",
          "type": "uint256"
        }
      ],
      "name": "tokenByIndex",
      "outputs": [
        {
          "internalType": "uint256",
          "name": "",
          "type": "uint256"
        }
      ],
      "stateMutability": "view",
      "type": "function",
      "constant": true
    },
    {
      "inputs": [
        {
          "internalType": "address",
          "name": "to",
          "type": "address"
        },
        {
          "internalType": "uint256",
          "name": "index",
          "type": "uint256"
        }
      ],
      "name": "tokenOfOwnerByIndex",
      "outputs": [
        {
          "internalType": "uint256",
          "name": "",
          "type": "uint256"
        }
      ],
      "stateMutability": "view",
      "type": "function",
      "constant": true
    },
    {
      "inputs": [],
      "name": "totalSupply",
      "outputs": [
        {
          "internalType": "uint256",
          "name": "",
          "type": "uint256"
        }
      ],
      "stateMutability": "view",
      "type": "function",
      "constant": true
    },
    {
      "inputs": [
        {
          "internalType": "string",
          "name": "kryptoBird",
          "type": "string"
        }
      ],
      "name": "mint",
      "outputs": [],
      "stateMutability": "nonpayable",
      "type": "function"
    }
  ],
  "bytecode": "0x60806040523480156200001157600080fd5b506040518060400160405280600b81526020017f4b727970746f426972647a0000000000000000000000000000000000000000008152506040518060400160405280600681526020017f4b424952445a00000000000000000000000000000000000000000000000000008152508181816000908051906020019062000098929190620000bc565b508060019080519060200190620000b1929190620000bc565b5050505050620001d1565b828054620000ca906200016c565b90600052602060002090601f016020900481019282620000ee57600085556200013a565b82601f106200010957805160ff19168380011785556200013a565b828001600101855582156200013a579182015b82811115620001395782518255916020019190600101906200011c565b5b5090506200014991906200014d565b5090565b5b80821115620001685760008160009055506001016200014e565b5090565b600060028204905060018216806200018557607f821691505b602082108114156200019c576200019b620001a2565b5b50919050565b7f4e487b7100000000000000000000000000000000000000000000000000000000600052602260045260246000fd5b61137880620001e16000396000f3fe608060405234801561001057600080fd5b50600436106100935760003560e01c80636352211e116100665780636352211e1461013457806370a082311461016457806393ab6e561461019457806395d89b41146101c4578063d85d3d27146101e257610093565b806306fdde031461009857806318160ddd146100b65780632f745c59146100d45780634f6ccce714610104575b600080fd5b6100a06101fe565b6040516100ad9190610fd8565b60405180910390f35b6100be610290565b6040516100cb91906110da565b60405180910390f35b6100ee60048036038101906100e99190610c5b565b61029d565b6040516100fb91906110da565b60405180910390f35b61011e60048036038101906101199190610cd8565b610373565b60405161012b91906110da565b60405180910390f35b61014e60048036038101906101499190610cd8565b61040a565b60405161015b9190610f86565b60405180910390f35b61017e60048036038101906101799190610c32565b6104e9565b60405161018b91906110da565b60405180910390f35b6101ae60048036038101906101a99190610cd8565b6105a1565b6040516101bb9190610fd8565b60405180910390f35b6101cc61064d565b6040516101d99190610fd8565b60405180910390f35b6101fc60048036038101906101f79190610c97565b6106df565b005b60606000805461020d906111fb565b80601f0160208091040260200160405190810160405280929190818152602001828054610239906111fb565b80156102865780601f1061025b57610100808354040283529160200191610286565b820191906000526020600020905b81548152906001019060200180831161026957829003601f168201915b5050505050905090565b6000600480549050905090565b60006102a8836104e9565b82106102e9576040517f08c379a00000000000000000000000000000000000000000000000000000000081526004016102e09061101a565b60405180910390fd5b600660008473ffffffffffffffffffffffffffffffffffffffff1673ffffffffffffffffffffffffffffffffffffffff1681526020019081526020016000208281548110610360577f4e487b7100000000000000000000000000000000000000000000000000000000600052603260045260246000fd5b9060005260206000200154905092915050565b600061037d610290565b82106103be576040517f08c379a00000000000000000000000000000000000000000000000000000000081526004016103b5906110ba565b60405180910390fd5b600482815481106103f8577f4e487b7100000000000000000000000000000000000000000000000000000000600052603260045260246000fd5b90600052602060002001549050919050565b60008073ffffffffffffffffffffffffffffffffffffffff166002600084815260200190815260200160002060009054906101000a900473ffffffffffffffffffffffffffffffffffffffff1673ffffffffffffffffffffffffffffffffffffffff1614156104ae576040517f08c379a00000000000000000000000000000000000000000000000000000000081526004016104a590610ffa565b60405180910390fd5b6002600083815260200190815260200160002060009054906101000a900473ffffffffffffffffffffffffffffffffffffffff169050919050565b60008073ffffffffffffffffffffffffffffffffffffffff168273ffffffffffffffffffffffffffffffffffffffff16141561055a576040517f08c379a00000000000000000000000000000000000000000000000000000000081526004016105519061107a565b60405180910390fd5b600360008373ffffffffffffffffffffffffffffffffffffffff1673ffffffffffffffffffffffffffffffffffffffff168152602001908152602001600020549050919050565b600881815481106105b157600080fd5b9060005260206000200160009150905080546105cc906111fb565b80601f01602080910402602001604051908101604052809291908181526020018280546105f8906111fb565b80156106455780601f1061061a57610100808354040283529160200191610645565b820191906000526020600020905b81548152906001019060200180831161062857829003601f168201915b505050505081565b60606001805461065c906111fb565b80601f0160208091040260200160405190810160405280929190818152602001828054610688906111fb565b80156106d55780601f106106aa576101008083540402835291602001916106d5565b820191906000526020600020905b8154815290600101906020018083116106b857829003601f168201915b5050505050905090565b6009816040516106ef9190610f6f565b908152602001604051809103902060009054906101000a900460ff161561074b576040517f08c379a00000000000000000000000000000000000000000000000000000000081526004016107429061103a565b60405180910390fd5b60006008805490509050600882908060018154018082558091505060019003906000526020600020016000909190919091509080519060200190610790929190610afd565b5061079b33826107d6565b60016009836040516107ad9190610f6f565b908152602001604051809103902060006101000a81548160ff0219169083151502179055505050565b6107e082826107f7565b6107e9816109f0565b6107f38282610a39565b5050565b600073ffffffffffffffffffffffffffffffffffffffff168273ffffffffffffffffffffffffffffffffffffffff161415610867576040517f08c379a000000000000000000000000000000000000000000000000000000000815260040161085e9061105a565b60405180910390fd5b600073ffffffffffffffffffffffffffffffffffffffff166002600083815260200190815260200160002060009054906101000a900473ffffffffffffffffffffffffffffffffffffffff1673ffffffffffffffffffffffffffffffffffffffff1614610909576040517f08c379a00000000000000000000000000000000000000000000000000000000081526004016109009061109a565b60405180910390fd5b816002600083815260200190815260200160002060006101000a81548173ffffffffffffffffffffffffffffffffffffffff021916908373ffffffffffffffffffffffffffffffffffffffff160217905550600360008373ffffffffffffffffffffffffffffffffffffffff1673ffffffffffffffffffffffffffffffffffffffff16815260200190815260200160002060008154809291906109ab9061122d565b91905055507fddf252ad1be2c89b69c2b068fc378daa952ba7f163c4a11628f55a4df523b3ef600083836040516109e493929190610fa1565b60405180910390a15050565b6004805490506005600083815260200190815260200160002081905550600481908060018154018082558091505060019003906000526020600020016000909190919091505550565b600660008373ffffffffffffffffffffffffffffffffffffffff1673ffffffffffffffffffffffffffffffffffffffff168152602001908152602001600020805490506007600083815260200190815260200160002081905550600660008373ffffffffffffffffffffffffffffffffffffffff1673ffffffffffffffffffffffffffffffffffffffff1681526020019081526020016000208190806001815401808255809150506001900390600052602060002001600090919091909150555050565b828054610b09906111fb565b90600052602060002090601f016020900481019282610b2b5760008555610b72565b82601f10610b4457805160ff1916838001178555610b72565b82800160010185558215610b72579182015b82811115610b71578251825591602001919060010190610b56565b5b509050610b7f9190610b83565b5090565b5b80821115610b9c576000816000905550600101610b84565b5090565b6000610bb3610bae84611126565b6110f5565b905082815260208101848484011115610bcb57600080fd5b610bd68482856111b9565b509392505050565b600081359050610bed81611314565b92915050565b600082601f830112610c0457600080fd5b8135610c14848260208601610ba0565b91505092915050565b600081359050610c2c8161132b565b92915050565b600060208284031215610c4457600080fd5b6000610c5284828501610bde565b91505092915050565b60008060408385031215610c6e57600080fd5b6000610c7c85828601610bde565b9250506020610c8d85828601610c1d565b9150509250929050565b600060208284031215610ca957600080fd5b600082013567ffffffffffffffff811115610cc357600080fd5b610ccf84828501610bf3565b91505092915050565b600060208284031215610cea57600080fd5b6000610cf884828501610c1d565b91505092915050565b610d0a8161117d565b82525050565b6000610d1b82611156565b610d258185611161565b9350610d358185602086016111c8565b610d3e81611303565b840191505092915050565b6000610d5482611156565b610d5e8185611172565b9350610d6e8185602086016111c8565b80840191505092915050565b6000610d87601c83611161565b91507f4552433732313a20546f6b656e20646f65736e6f7420657869737473000000006000830152602082019050919050565b6000610dc7601a83611161565b91507f4f776e657220696e646578206f7574206f6620626f756e64732e0000000000006000830152602082019050919050565b6000610e07601a83611161565b91507f4b727970746f4269726420416c7265616479206578697374732e0000000000006000830152602082019050919050565b6000610e47601c83611161565b91507f4552433732313a20496e76616c6964206d696e742061646472657373000000006000830152602082019050919050565b6000610e87602583611161565b91507f4552433732313a205f6f776e65722063616e6e6f74206265207a65726f20616460008301527f64726573730000000000000000000000000000000000000000000000000000006020830152604082019050919050565b6000610eed601c83611161565b91507f4552433732313a20546f6b656e20416c7265616479206d696e746564000000006000830152602082019050919050565b6000610f2d601b83611161565b91507f476c6f62616c20696e646578206f7574206f6620626f756e64732e00000000006000830152602082019050919050565b610f69816111af565b82525050565b6000610f7b8284610d49565b915081905092915050565b6000602082019050610f9b6000830184610d01565b92915050565b6000606082019050610fb66000830186610d01565b610fc36020830185610d01565b610fd06040830184610f60565b949350505050565b60006020820190508181036000830152610ff28184610d10565b905092915050565b6000602082019050818103600083015261101381610d7a565b9050919050565b6000602082019050818103600083015261103381610dba565b9050919050565b6000602082019050818103600083015261105381610dfa565b9050919050565b6000602082019050818103600083015261107381610e3a565b9050919050565b6000602082019050818103600083015261109381610e7a565b9050919050565b600060208201905081810360008301526110b381610ee0565b9050919050565b600060208201905081810360008301526110d381610f20565b9050919050565b60006020820190506110ef6000830184610f60565b92915050565b6000604051905081810181811067ffffffffffffffff8211171561111c5761111b6112d4565b5b8060405250919050565b600067ffffffffffffffff821115611141576111406112d4565b5b601f19601f8301169050602081019050919050565b600081519050919050565b600082825260208201905092915050565b600081905092915050565b60006111888261118f565b9050919050565b600073ffffffffffffffffffffffffffffffffffffffff82169050919050565b6000819050919050565b82818337600083830152505050565b60005b838110156111e65780820151818401526020810190506111cb565b838111156111f5576000848401525b50505050565b6000600282049050600182168061121357607f821691505b60208210811415611227576112266112a5565b5b50919050565b6000611238826111af565b91507fffffffffffffffffffffffffffffffffffffffffffffffffffffffffffffffff82141561126b5761126a611276565b5b600182019050919050565b7f4e487b7100000000000000000000000000000000000000000000000000000000600052601160045260246000fd5b7f4e487b7100000000000000000000000000000000000000000000000000000000600052602260045260246000fd5b7f4e487b7100000000000000000000000000000000000000000000000000000000600052604160045260246000fd5b6000601f19601f8301169050919050565b61131d8161117d565b811461132857600080fd5b50565b611334816111af565b811461133f57600080fd5b5056fea2646970667358221220eb0376e1bee5b84221a6bb984a77e189b793aada1355c2998f2f1e5ec05324a864736f6c63430008000033",
  "immutableReferences": {},
  "source": "// SPDX-License-Identifier: MIT\n// SPDX-License-Identifier: MIT\npragma solidity 0.8.0;\nimport './ERC721Connector.sol';\n\ncontract KryptoBirdz is ERC721Connector{\n\n    // state variables\n    string[] public kryptoBirdz;\n    mapping(string=>bool) private _kryptoBirdzExists;\n\n    // events   \n\n\n\n\n    // constructor \n    constructor() ERC721Connector(\"KryptoBirdz\",\"KBIRDZ\"){\n    }\n\n\n    // functions    \n    function mint(string memory kryptoBird) public {\n        require(!_kryptoBirdzExists[kryptoBird],'KryptoBird Already exists.');\n        uint256 id= kryptoBirdz.length;\n        kryptoBirdz.push(kryptoBird);\n        _mint(msg.sender,id);\n        _kryptoBirdzExists[kryptoBird]=true;\n    }\n\n\n}\n\n",
  "sourcePath": "/home/user/Downloads/.practice/NFTs/UDEMY-NFT-MARKETPLACE/nft-marketplace/src/contracts/KryptoBirdz.sol",
  "compiler": {
    "name": "solc",
    "version": "0.8.0+commit.c7dfd78e.Emscripten.clang"
  },
  "schemaVersion": "3.4.3",
  "updatedAt": "2021-11-30T12:43:09.536Z",
  "networkType": "ethereum",
  "devdoc": {
    "kind": "dev",
    "methods": {},
    "version": 1
  },
  "userdoc": {
    "kind": "user",
    "methods": {},
    "version": 1
  }
}